:030000000201AC4E
:0C01AC00787FE4F6D8FD75812002006623
:10006600D200D291E4F509F50A1201B8C2021201D2
:100076009B3001FAE508B4011C7F0A7E0012018656
:1000860012010C7FF47E01120186C201D2927F64B6
:100096007E00120186E508B402D47F0A7E001201B2
:1000A6008612013E7FF47E01120186C2017F647EC4
:0600B6000012018680B873
:10010C00200027D3E50A9400E509940040147D0AE9
:10011C007F0A120003C291C292E50A150A701215E9
:10012C000922D200E4F509F50A22E4F509F50AD210
:02013C0091220E
:10013E00D3E4950AE4950950047F0180027F00C341
:10014E00EF6480948A5016C2937F207E4E120186F1
:10015E00750900750A0AC291C200D29322C2912279
:10018600EF1F70011E144E600B7D2CEDD3940040C2
:04019600EF1D80F7E2
:01019A002242
:10019B0020A005D20175080120A105D20175080226
:0101AB002231
:0901B800D288D2A8D2AFC2902275
:07016E00D2901201C1C29002
:100175007F017E017D017C01DCFEDDFADEF6DFF22A
:010185002257
:0801C1007F077E01DEFEDFFA7C
:0101C9002213
:0801CA007F017E61DEFEDFFA19
:0101D200220A
:040003008F0C8D0DC4
:10000700C2AF7B137A0112016EEB1B70011A144AFF
:1000170070F4FA7B2BC2901201CAEB1B70011A1401
:100027004A70F2AF0C1200BCE50CF4FF1200BCAF33
:100037000D1200BCE50DF4FF1200BC7A007B2D12F7
:10004700016EEB1B70011A144A70F4FA7B2DC290F3
:0E0057001201CAEB1B70011A144A70F2D2AFEC
:010065002278
:0200BC00AB0790
:1000BE00E4FA90001212016EE58215827002158329
:1000CE0014458370F0EB30E017900010C2901201CF
:1000DE00CAE58215827002158314458370EE801571
:1000EE00900005C2901201CAE58215827002158336
:0D00FE0014458370EEEBC313FB0ABA08B57E
:01010B0022D1
:00000001FF
