:0300000002014EAC
:0C014E00787FE4F6D8FD75812002019551
:02022000C1001B
:1001DA00E4F50DF50ED2911201FF3000FDC20012B6
:0401EA00021C80F67D
:0B01FF00D288D2A8D2AFD2B2C2002238
:03000300020006F2
:10000600C0E0C0F0C083C082C0D075D000C000C0C0
:1000160001C002C003C004C005C006C007C2AF7558
:100026000800750F00751050120213E510151070B8
:1000360002150F14450F70F030B203020131750935
:1000460001750AF420B218D3E50A9400E509940074
:10005600400D120213E50A150A70E9150980E5201C
:10006600B203020114750901750AF430B218D3E51A
:100076000A9400E5099400400D120213E50A150AD8
:1000860070E9150980E5751200751100750900758E
:100096000A3C20B218D3E50A9400E5099400400D05
:1000A600120213E50A150A70E9150980E5750901BA
:1000B600750AF430B223D3E50A9400E509940040AA
:1000C600181202130508E50A150A70021509E50853
:1000D600D3943240DED2AF805474152512F8C00096
:1000E600E6C313D000F6E508C39408400974152545
:1000F60012F8E64480F67508000511E511C3940868
:10010600408A0512E512C39404500302008FE516D7
:10011600F4F5156016E518F4F517600DE515B40A43
:1001260004D2008006C2008002C200D2AFD007D03F
:1001360006D005D004D003D002D001D000D0D0D054
:0801460082D083D0F0D0E0323A
:1001EE007F017E017D017C01DCFEDDFADEF6DFF2B1
:0101FE0022DE
:08020A007F077E01DEFEDFFA32
:0102120022C9
:080213007F017E61DEFEDFFACF
:01021B0022C0
:04021C00C29180FC0F
:10015A000201DAE493A3F8E493A34003F68001F2E0
:10016A0008DFF48029E493A3F85407240CC8C333A6
:10017A00C4540F4420C8834004F456800146F6DF75
:10018A00E4800B0102040810204080900220E47EE3
:10019A00019360BCA3FF543F30E509541FFEE4936A
:1001AA00A360010ECF54C025E060A840B8E493A331
:1001BA00FAE493A3F8E493A3C8C582C8CAC583CA5C
:1001CA00F0A3C8C582C8CAC583CADFE9DEE780BE14
:0102220000DB
:00000001FF
